:100000000C9450000C945A000C945A000C945A0012
:100010000C945A000C945A000C945A000C945A00F8
:100020000C945A000C945A000C945A000C945A00E8
:100030000C945A000C945A000C945A000C945A00D8
:100040000C945A000C945A000C945A000C945A00C8
:100050000C945A000C945A000C945A000C945A00B8
:100060000C945A000C945A000C945A000C945A00A8
:100070000C945A000C945A000C945A000C945A0098
:100080000C945A000C945A000C945A000C945A0088
:100090000C945A000C945A000C945A000C945A0078
:1000A00011241FBECFEFCDBFDFE3DEBF0E945C0097
:1000B0000C947B000C9400008091A00480628093DB
:1000C000A0048091A00480648093A00490E28091B9
:1000D000A80480748093A8048823C9F38091A404A1
:1000E00089278093A40425E136E185E02150304042
:0A00F0008040E1F7ECCFF894FFCF59
:00000001FF
